{
  "contractName": "ToDo_List",
  "abi": [
    {
      "anonymous": false,
      "inputs": [
        {
          "indexed": false,
          "internalType": "uint256",
          "name": "taskId",
          "type": "uint256"
        },
        {
          "indexed": false,
          "internalType": "bool",
          "name": "completed",
          "type": "bool"
        }
      ],
      "name": "TaskCompleted",
      "type": "event"
    },
    {
      "constant": true,
      "inputs": [],
      "name": "taskCount",
      "outputs": [
        {
          "internalType": "uint256",
          "name": "",
          "type": "uint256"
        }
      ],
      "payable": false,
      "stateMutability": "view",
      "type": "function"
    },
    {
      "constant": false,
      "inputs": [
        {
          "internalType": "string",
          "name": "_content",
          "type": "string"
        }
      ],
      "name": "addTask",
      "outputs": [],
      "payable": false,
      "stateMutability": "nonpayable",
      "type": "function"
    },
    {
      "constant": false,
      "inputs": [
        {
          "internalType": "uint256",
          "name": "_taskId",
          "type": "uint256"
        }
      ],
      "name": "toggleCompleted",
      "outputs": [],
      "payable": false,
      "stateMutability": "nonpayable",
      "type": "function"
    }
  ],
  "bytecode": "0x60806040526000805534801561001457600080fd5b50610493806100246000396000f3fe608060405234801561001057600080fd5b50600436106100415760003560e01c8063455f5024146100465780636723856214610074578063b6cb58a51461012f575b600080fd5b6100726004803603602081101561005c57600080fd5b810190808035906020019092919050505061014d565b005b61012d6004803603602081101561008a57600080fd5b81019080803590602001906401000000008111156100a757600080fd5b8201836020820111156100b957600080fd5b803590602001918460018302840111640100000000831117156100db57600080fd5b91908080601f016020809104026020016040519081016040528093929190818152602001838380828437600081840152601f19601f8201169050808301925050505050505091929192905050506102fe565b005b610137610390565b6040518082815260200191505060405180910390f35b610155610396565b6001600083815260200190815260200160002060405180606001604052908160008201548152602001600182018054600181600116156101000203166002900480601f0160208091040260200160405190810160405280929190818152602001828054600181600116156101000203166002900480156102165780601f106101eb57610100808354040283529160200191610216565b820191906000526020600020905b8154815290600101906020018083116101f957829003601f168201915b505050505081526020016002820160009054906101000a900460ff1615151515815250509050806040015115816040019015159081151581525050806001600084815260200190815260200160002060008201518160000155602082015181600101908051906020019061028b9291906103b9565b5060408201518160020160006101000a81548160ff0219169083151502179055509050507fe21fa966ca5cd02748c0752352d18c48165e61cb55b4c29cccf924b5a95fcff18160000151826040015160405180838152602001821515151581526020019250505060405180910390a15050565b6000808154809291906001019190505550604051806060016040528060005481526020018281526020016000151581525060016000805481526020019081526020016000206000820151816000015560208201518160010190805190602001906103699291906103b9565b5060408201518160020160006101000a81548160ff02191690831515021790555090505050565b60005481565b604051806060016040528060008152602001606081526020016000151581525090565b828054600181600116156101000203166002900490600052602060002090601f016020900481019282601f106103fa57805160ff1916838001178555610428565b82800160010185558215610428579182015b8281111561042757825182559160200191906001019061040c565b5b5090506104359190610439565b5090565b61045b91905b8082111561045757600081600090555060010161043f565b5090565b9056fea265627a7a72315820918fd12e6eeeb1d37582e5df853488a95d2d238dec51fc248140e44e4452b13264736f6c63430005100032",
  "source": "// SPDX-License-Identifier: MIT\npragma solidity >=0.4.22 <0.9.0;\n\ncontract ToDo_List {\n\n  //To store the number of tasks\n  uint public taskCount = 0;\n\n  //To store details of a task \n  struct Task {\n    uint taskId; \n    string content;\n    bool completed;\n  }\n\n  //To store all the tasks\n  mapping (uint=>Task) tasks;\n\n  //To add a new task to the list\n  function addTask(string memory _content) public{\n    taskCount++;\n    tasks[taskCount] = Task(taskCount,_content,false);\n  }\n\n  //Event to be emitted when a task is completed\n  event TaskCompleted (uint taskId,bool completed);\n\n  //To toggle whether a task is completed or not\n  function toggleCompleted(uint _taskId) public{\n    Task memory task = tasks[_taskId];\n    task.completed = !task.completed;\n    tasks[_taskId] = task;\n\n    emit TaskCompleted(task.taskId,task.completed);\n  }\n}\n",
  "sourcePath": "C:\\Users\\Kailash\\Desktop\\All Projects\\Eth ToDo List\\src\\contracts\\ToDo_List.sol",
  "compiler": {
    "name": "solc",
    "version": "0.5.16+commit.9c3226ce.Emscripten.clang"
  },
  "schemaVersion": "3.4.3",
  "updatedAt": "2021-11-07T11:08:15.390Z",
  "networkType": "ethereum",
  "devdoc": {
    "methods": {}
  },
  "userdoc": {
    "methods": {}
  }
}