{
  "contractName": "ToDo_List",
  "abi": [
    {
      "anonymous": false,
      "inputs": [
        {
          "indexed": false,
          "internalType": "uint256",
          "name": "taskId",
          "type": "uint256"
        },
        {
          "indexed": false,
          "internalType": "bool",
          "name": "completed",
          "type": "bool"
        }
      ],
      "name": "TaskCompleted",
      "type": "event"
    },
    {
      "constant": true,
      "inputs": [],
      "name": "taskCount",
      "outputs": [
        {
          "internalType": "uint256",
          "name": "",
          "type": "uint256"
        }
      ],
      "payable": false,
      "stateMutability": "view",
      "type": "function"
    },
    {
      "constant": true,
      "inputs": [
        {
          "internalType": "uint256",
          "name": "",
          "type": "uint256"
        }
      ],
      "name": "tasks",
      "outputs": [
        {
          "internalType": "uint256",
          "name": "taskId",
          "type": "uint256"
        },
        {
          "internalType": "string",
          "name": "content",
          "type": "string"
        },
        {
          "internalType": "bool",
          "name": "completed",
          "type": "bool"
        }
      ],
      "payable": false,
      "stateMutability": "view",
      "type": "function"
    },
    {
      "constant": false,
      "inputs": [
        {
          "internalType": "string",
          "name": "_content",
          "type": "string"
        }
      ],
      "name": "addTask",
      "outputs": [],
      "payable": false,
      "stateMutability": "nonpayable",
      "type": "function"
    },
    {
      "constant": false,
      "inputs": [
        {
          "internalType": "uint256",
          "name": "_taskId",
          "type": "uint256"
        }
      ],
      "name": "toggleCompleted",
      "outputs": [],
      "payable": false,
      "stateMutability": "nonpayable",
      "type": "function"
    }
  ],
  "bytecode": "0x60806040526000805534801561001457600080fd5b50610626806100246000396000f3fe608060405234801561001057600080fd5b506004361061004c5760003560e01c8063455f502414610051578063672385621461007f5780638d9776721461013a578063b6cb58a5146101f3575b600080fd5b61007d6004803603602081101561006757600080fd5b8101908080359060200190929190505050610211565b005b6101386004803603602081101561009557600080fd5b81019080803590602001906401000000008111156100b257600080fd5b8201836020820111156100c457600080fd5b803590602001918460018302840111640100000000831117156100e657600080fd5b91908080601f016020809104026020016040519081016040528093929190818152602001838380828437600081840152601f19601f8201169050808301925050505050505091929192905050506103c2565b005b6101666004803603602081101561015057600080fd5b8101908080359060200190929190505050610454565b604051808481526020018060200183151515158152602001828103825284818151815260200191508051906020019080838360005b838110156101b657808201518184015260208101905061019b565b50505050905090810190601f1680156101e35780820380516001836020036101000a031916815260200191505b5094505050505060405180910390f35b6101fb610523565b6040518082815260200191505060405180910390f35b610219610529565b6001600083815260200190815260200160002060405180606001604052908160008201548152602001600182018054600181600116156101000203166002900480601f0160208091040260200160405190810160405280929190818152602001828054600181600116156101000203166002900480156102da5780601f106102af576101008083540402835291602001916102da565b820191906000526020600020905b8154815290600101906020018083116102bd57829003601f168201915b505050505081526020016002820160009054906101000a900460ff1615151515815250509050806040015115816040019015159081151581525050806001600084815260200190815260200160002060008201518160000155602082015181600101908051906020019061034f92919061054c565b5060408201518160020160006101000a81548160ff0219169083151502179055509050507fe21fa966ca5cd02748c0752352d18c48165e61cb55b4c29cccf924b5a95fcff18160000151826040015160405180838152602001821515151581526020019250505060405180910390a15050565b60008081548092919060010191905055506040518060600160405280600054815260200182815260200160001515815250600160008054815260200190815260200160002060008201518160000155602082015181600101908051906020019061042d92919061054c565b5060408201518160020160006101000a81548160ff02191690831515021790555090505050565b6001602052806000526040600020600091509050806000015490806001018054600181600116156101000203166002900480601f0160208091040260200160405190810160405280929190818152602001828054600181600116156101000203166002900480156105065780601f106104db57610100808354040283529160200191610506565b820191906000526020600020905b8154815290600101906020018083116104e957829003601f168201915b5050505050908060020160009054906101000a900460ff16905083565b60005481565b604051806060016040528060008152602001606081526020016000151581525090565b828054600181600116156101000203166002900490600052602060002090601f016020900481019282601f1061058d57805160ff19168380011785556105bb565b828001600101855582156105bb579182015b828111156105ba57825182559160200191906001019061059f565b5b5090506105c891906105cc565b5090565b6105ee91905b808211156105ea5760008160009055506001016105d2565b5090565b9056fea265627a7a72315820cb75de0bc1065b56257700e0d4604215e22af0144d9429fb5cd6b649297f5b6164736f6c63430005100032",
  "source": "// SPDX-License-Identifier: MIT\npragma solidity >=0.4.22 <0.9.0;\n\ncontract ToDo_List {\n\n  //To store the number of tasks\n  uint public taskCount = 0;\n\n  //To store details of a task \n  struct Task {\n    uint taskId; \n    string content;\n    bool completed;\n  }\n\n  //To store all the tasks\n  mapping (uint=>Task) public tasks;\n\n  //To add a new task to the list\n  function addTask(string memory _content) public{\n    taskCount++;\n    tasks[taskCount] = Task(taskCount,_content,false);\n  }\n\n  //Event to be emitted when a task is completed\n  event TaskCompleted (uint taskId,bool completed);\n\n  //To toggle whether a task is completed or not\n  function toggleCompleted(uint _taskId) public{\n    Task memory task = tasks[_taskId];\n    task.completed = !task.completed;\n    tasks[_taskId] = task;\n\n    emit TaskCompleted(task.taskId,task.completed);\n  }\n}\n",
  "sourcePath": "C:\\Users\\Kailash\\Desktop\\All Projects\\Eth ToDo List\\contracts\\ToDo_List.sol",
  "compiler": {
    "name": "solc",
    "version": "0.5.16+commit.9c3226ce.Emscripten.clang"
  },
  "schemaVersion": "3.4.3",
  "updatedAt": "2021-11-08T07:21:29.590Z",
  "networkType": "ethereum",
  "devdoc": {
    "methods": {}
  },
  "userdoc": {
    "methods": {}
  }
}